{
  "_format": "hh-sol-artifact-1",
  "contractName": "Distribution",
  "sourceName": "contracts/Distribution.sol",
  "abi": [
    {
      "inputs": [
        {
          "internalType": "address",
          "name": "_fSkyToken",
          "type": "address"
        },
        {
          "internalType": "address",
          "name": "_owner",
          "type": "address"
        }
      ],
      "stateMutability": "nonpayable",
      "type": "constructor"
    },
    {
      "inputs": [
        {
          "internalType": "address",
          "name": "owner",
          "type": "address"
        }
      ],
      "name": "OwnableInvalidOwner",
      "type": "error"
    },
    {
      "inputs": [
        {
          "internalType": "address",
          "name": "account",
          "type": "address"
        }
      ],
      "name": "OwnableUnauthorizedAccount",
      "type": "error"
    },
    {
      "inputs": [],
      "name": "ReentrancyGuardReentrantCall",
      "type": "error"
    },
    {
      "anonymous": false,
      "inputs": [
        {
          "indexed": true,
          "internalType": "uint256",
          "name": "round",
          "type": "uint256"
        },
        {
          "indexed": false,
          "internalType": "uint256",
          "name": "totalAmount",
          "type": "uint256"
        },
        {
          "indexed": false,
          "internalType": "uint256",
          "name": "totalSupply",
          "type": "uint256"
        },
        {
          "indexed": false,
          "internalType": "uint256",
          "name": "dust",
          "type": "uint256"
        }
      ],
      "name": "DistributionCalculated",
      "type": "event"
    },
    {
      "anonymous": false,
      "inputs": [
        {
          "indexed": true,
          "internalType": "address",
          "name": "owner",
          "type": "address"
        },
        {
          "indexed": false,
          "internalType": "uint256",
          "name": "amount",
          "type": "uint256"
        }
      ],
      "name": "DustWithdrawn",
      "type": "event"
    },
    {
      "anonymous": false,
      "inputs": [
        {
          "indexed": true,
          "internalType": "address",
          "name": "previousOwner",
          "type": "address"
        },
        {
          "indexed": true,
          "internalType": "address",
          "name": "newOwner",
          "type": "address"
        }
      ],
      "name": "OwnershipTransferred",
      "type": "event"
    },
    {
      "anonymous": false,
      "inputs": [
        {
          "indexed": true,
          "internalType": "address",
          "name": "holder",
          "type": "address"
        },
        {
          "indexed": true,
          "internalType": "uint256",
          "name": "round",
          "type": "uint256"
        },
        {
          "indexed": false,
          "internalType": "uint256",
          "name": "amount",
          "type": "uint256"
        }
      ],
      "name": "PaymentClaimed",
      "type": "event"
    },
    {
      "anonymous": false,
      "inputs": [
        {
          "indexed": true,
          "internalType": "address",
          "name": "depositor",
          "type": "address"
        },
        {
          "indexed": false,
          "internalType": "uint256",
          "name": "amount",
          "type": "uint256"
        },
        {
          "indexed": false,
          "internalType": "uint256",
          "name": "round",
          "type": "uint256"
        }
      ],
      "name": "RentDeposited",
      "type": "event"
    },
    {
      "inputs": [
        {
          "internalType": "uint256[]",
          "name": "rounds",
          "type": "uint256[]"
        }
      ],
      "name": "claimMultipleRounds",
      "outputs": [],
      "stateMutability": "nonpayable",
      "type": "function"
    },
    {
      "inputs": [
        {
          "internalType": "uint256",
          "name": "round",
          "type": "uint256"
        }
      ],
      "name": "claimPayment",
      "outputs": [],
      "stateMutability": "nonpayable",
      "type": "function"
    },
    {
      "inputs": [
        {
          "internalType": "address",
          "name": "",
          "type": "address"
        },
        {
          "internalType": "uint256",
          "name": "",
          "type": "uint256"
        }
      ],
      "name": "claimed",
      "outputs": [
        {
          "internalType": "bool",
          "name": "",
          "type": "bool"
        }
      ],
      "stateMutability": "view",
      "type": "function"
    },
    {
      "inputs": [],
      "name": "currentRound",
      "outputs": [
        {
          "internalType": "uint256",
          "name": "",
          "type": "uint256"
        }
      ],
      "stateMutability": "view",
      "type": "function"
    },
    {
      "inputs": [],
      "name": "depositRent",
      "outputs": [],
      "stateMutability": "payable",
      "type": "function"
    },
    {
      "inputs": [
        {
          "internalType": "uint256",
          "name": "",
          "type": "uint256"
        }
      ],
      "name": "distributions",
      "outputs": [
        {
          "internalType": "uint256",
          "name": "totalAmount",
          "type": "uint256"
        },
        {
          "internalType": "uint256",
          "name": "totalSupply",
          "type": "uint256"
        },
        {
          "internalType": "uint256",
          "name": "timestamp",
          "type": "uint256"
        },
        {
          "internalType": "uint256",
          "name": "dustRemaining",
          "type": "uint256"
        },
        {
          "internalType": "uint256",
          "name": "perShareScaled",
          "type": "uint256"
        }
      ],
      "stateMutability": "view",
      "type": "function"
    },
    {
      "inputs": [],
      "name": "fSkyToken",
      "outputs": [
        {
          "internalType": "contract IERC20",
          "name": "",
          "type": "address"
        }
      ],
      "stateMutability": "view",
      "type": "function"
    },
    {
      "inputs": [
        {
          "internalType": "address",
          "name": "holder",
          "type": "address"
        },
        {
          "internalType": "uint256",
          "name": "round",
          "type": "uint256"
        }
      ],
      "name": "getClaimableAmount",
      "outputs": [
        {
          "internalType": "uint256",
          "name": "",
          "type": "uint256"
        }
      ],
      "stateMutability": "view",
      "type": "function"
    },
    {
      "inputs": [],
      "name": "getContractBalance",
      "outputs": [
        {
          "internalType": "uint256",
          "name": "",
          "type": "uint256"
        }
      ],
      "stateMutability": "view",
      "type": "function"
    },
    {
      "inputs": [
        {
          "internalType": "address",
          "name": "holder",
          "type": "address"
        }
      ],
      "name": "getUnclaimedRounds",
      "outputs": [
        {
          "internalType": "uint256[]",
          "name": "",
          "type": "uint256[]"
        }
      ],
      "stateMutability": "view",
      "type": "function"
    },
    {
      "inputs": [],
      "name": "owner",
      "outputs": [
        {
          "internalType": "address",
          "name": "",
          "type": "address"
        }
      ],
      "stateMutability": "view",
      "type": "function"
    },
    {
      "inputs": [],
      "name": "renounceOwnership",
      "outputs": [],
      "stateMutability": "nonpayable",
      "type": "function"
    },
    {
      "inputs": [],
      "name": "totalDustAccumulated",
      "outputs": [
        {
          "internalType": "uint256",
          "name": "",
          "type": "uint256"
        }
      ],
      "stateMutability": "view",
      "type": "function"
    },
    {
      "inputs": [
        {
          "internalType": "address",
          "name": "newOwner",
          "type": "address"
        }
      ],
      "name": "transferOwnership",
      "outputs": [],
      "stateMutability": "nonpayable",
      "type": "function"
    },
    {
      "inputs": [],
      "name": "withdrawDust",
      "outputs": [],
      "stateMutability": "nonpayable",
      "type": "function"
    }
  ],
  "bytecode": "0x60a060405234801561001057600080fd5b5060405161113c38038061113c83398101604081905261002f916100ea565b806001600160a01b03811661005e57604051631e4fbdf760e01b81526000600482015260240160405180910390fd5b6100678161007e565b5050600180556001600160a01b031660805261011d565b600080546001600160a01b038381166001600160a01b0319831681178455604051919092169283917f8be0079c531659141344cd1fd0a4f28419497f9722a3daafe3b4186f6b6457e09190a35050565b80516001600160a01b03811681146100e557600080fd5b919050565b600080604083850312156100fd57600080fd5b610106836100ce565b9150610114602084016100ce565b90509250929050565b608051610ff6610146600039600081816102460152818161064101526108990152610ff66000f3fe6080604052600436106100e85760003560e01c80638a19c8bc1161008a578063cfb550f111610059578063cfb550f1146102f4578063e3473d1614610309578063eec361f51461031f578063f2fde38b1461032757600080fd5b80638a19c8bc146102805780638da5cb5b14610296578063b3743f60146102b4578063c63fdcc7146102d457600080fd5b80634dd6c8de116100c65780634dd6c8de146101b75780636f9fb98a14610202578063715018a61461021f578063741acae51461023457600080fd5b806318a4e8bb146100ed5780631bab1f7e1461010f5780634487d3df14610145575b600080fd5b3480156100f957600080fd5b5061010d610108366004610db3565b610347565b005b34801561011b57600080fd5b5061012f61012a366004610e44565b6103fc565b60405161013c9190610e66565b60405180910390f35b34801561015157600080fd5b5061018f610160366004610eaa565b600260208190526000918252604090912080546001820154928201546003830154600490930154919392909185565b604080519586526020860194909452928401919091526060830152608082015260a00161013c565b3480156101c357600080fd5b506101f26101d2366004610ec3565b600360209081526000928352604080842090915290825290205460ff1681565b604051901515815260200161013c565b34801561020e57600080fd5b50475b60405190815260200161013c565b34801561022b57600080fd5b5061010d61057a565b34801561024057600080fd5b506102687f000000000000000000000000000000000000000000000000000000000000000081565b6040516001600160a01b03909116815260200161013c565b34801561028c57600080fd5b5061021160045481565b3480156102a257600080fd5b506000546001600160a01b0316610268565b3480156102c057600080fd5b506102116102cf366004610ec3565b61058e565b3480156102e057600080fd5b5061010d6102ef366004610eaa565b6106fb565b34801561030057600080fd5b5061010d610707565b34801561031557600080fd5b5061021160055481565b61010d61084d565b34801561033357600080fd5b5061010d610342366004610e44565b610ae0565b60005b818110156103f7573360009081526003602052604081209084848481811061037457610374610eed565b602090810292909201358352508101919091526040016000205460ff161580156103bf575060006103bd338585858181106103b1576103b1610eed565b9050602002013561058e565b115b156103e5576103e58383838181106103d9576103d9610eed565b90506020020135610b1b565b806103ef81610f19565b91505061034a565b505050565b6060600060045467ffffffffffffffff81111561041b5761041b610f32565b604051908082528060200260200182016040528015610444578160200160208202803683370190505b509050600060015b60045481116104d5576001600160a01b038516600090815260036020908152604080832084845290915290205460ff1615801561049257506000610490868361058e565b115b156104c357808383815181106104aa576104aa610eed565b6020908102919091010152816104bf81610f19565b9250505b806104cd81610f19565b91505061044c565b5060008167ffffffffffffffff8111156104f1576104f1610f32565b60405190808252806020026020018201604052801561051a578160200160208202803683370190505b50905060005b828110156105715783818151811061053a5761053a610eed565b602002602001015182828151811061055457610554610eed565b60209081029190910101528061056981610f19565b915050610520565b50949350505050565b610582610d0c565b61058c6000610d39565b565b600081158061059e575060045482115b806105cc57506001600160a01b038316600090815260036020908152604080832085845290915290205460ff165b156105d9575060006106f5565b6000828152600260208181526040808420815160a081018352815481526001820154938101939093529283015482820152600383015460608301526004928301546080830152516370a0823160e01b81526001600160a01b03878116938201939093529092917f000000000000000000000000000000000000000000000000000000000000000016906370a0823190602401602060405180830381865afa158015610688573d6000803e3d6000fd5b505050506040513d601f19601f820116820180604052508101906106ac9190610f48565b90508015806106bd57506020820151155b156106cd576000925050506106f5565b670de0b6b3a76400008260800151826106e69190610f61565b6106f09190610f78565b925050505b92915050565b61070481610b1b565b50565b61070f610d0c565b6005548061075a5760405162461bcd60e51b81526020600482015260136024820152724e6f206475737420746f20776974686472617760681b60448201526064015b60405180910390fd5b6000600581905580546040516001600160a01b039091169083908381818185875af1925050503d80600081146107ac576040519150601f19603f3d011682016040523d82523d6000602084013e6107b1565b606091505b50509050806107fb5760405162461bcd60e51b8152602060048201526016602482015275111d5cdd081dda5d1a191c985dd85b0819985a5b195960521b6044820152606401610751565b6000546001600160a01b03166001600160a01b03167f1a196790e94751831fb9ca8c3f72d91d761b8d6815921535b5d8545d72f07bb18360405161084191815260200190565b60405180910390a25050565b600034116108955760405162461bcd60e51b81526020600482015260156024820152744e6f2072656e7420746f206469737472696275746560581b6044820152606401610751565b60007f00000000000000000000000000000000000000000000000000000000000000006001600160a01b03166318160ddd6040518163ffffffff1660e01b8152600401602060405180830381865afa1580156108f5573d6000803e3d6000fd5b505050506040513d601f19601f820116820180604052508101906109199190610f48565b90506000811161095e5760405162461bcd60e51b815260206004820152601060248201526f4e6f20746f6b656e20686f6c6465727360801b6044820152606401610751565b6004805490600061096e83610f19565b91905055506000600554346109839190610f9a565b60006005819055909150826109a0670de0b6b3a764000084610f61565b6109aa9190610f78565b90506000670de0b6b3a76400006109c18584610f61565b6109cb9190610f78565b905060006109d98285610fad565b6040805160a08101825284815260208082018981524283850190815260608401868152608085018a81526004805460009081526002968790529788209651875593516001870155915193850193909355915160038401559051910155600580549293508392909190610a4c908490610f9a565b909155505060045460405133917ff335f24c222716a32e307b843fe125d20c7fd660660a5538ded173c33ac219b391610a8d91348252602082015260400190565b60405180910390a260045460408051848152602081018890529081018390527f116aa83d96a6d02ef97d0d1713e1dbbb088f1e3cb8652f0b89e1572acc801b449060600160405180910390a25050505050565b610ae8610d0c565b6001600160a01b038116610b1257604051631e4fbdf760e01b815260006004820152602401610751565b61070481610d39565b610b23610d89565b600081118015610b3557506004548111155b610b715760405162461bcd60e51b815260206004820152600d60248201526c125b9d985b1a59081c9bdd5b99609a1b6044820152606401610751565b33600090815260036020908152604080832084845290915290205460ff1615610bce5760405162461bcd60e51b815260206004820152600f60248201526e105b1c9958591e4818db185a5b5959608a1b6044820152606401610751565b6000610bda338361058e565b905060008111610c1f5760405162461bcd60e51b815260206004820152601060248201526f4e6f7468696e6720746f20636c61696d60801b6044820152606401610751565b336000818152600360209081526040808320868452909152808220805460ff191660011790555190919083908381818185875af1925050503d8060008114610c83576040519150601f19603f3d011682016040523d82523d6000602084013e610c88565b606091505b5050905080610cca5760405162461bcd60e51b815260206004820152600e60248201526d14185e5b595b9d0819985a5b195960921b6044820152606401610751565b604051828152839033907fe382930a1e1c9d4208204fa93e9089518e327044527d4428dbe71c8f812d0dbe9060200160405180910390a3505061070460018055565b6000546001600160a01b0316331461058c5760405163118cdaa760e01b8152336004820152602401610751565b600080546001600160a01b038381166001600160a01b0319831681178455604051919092169283917f8be0079c531659141344cd1fd0a4f28419497f9722a3daafe3b4186f6b6457e09190a35050565b600260015403610dac57604051633ee5aeb560e01b815260040160405180910390fd5b6002600155565b60008060208385031215610dc657600080fd5b823567ffffffffffffffff80821115610dde57600080fd5b818501915085601f830112610df257600080fd5b813581811115610e0157600080fd5b8660208260051b8501011115610e1657600080fd5b60209290920196919550909350505050565b80356001600160a01b0381168114610e3f57600080fd5b919050565b600060208284031215610e5657600080fd5b610e5f82610e28565b9392505050565b6020808252825182820181905260009190848201906040850190845b81811015610e9e57835183529284019291840191600101610e82565b50909695505050505050565b600060208284031215610ebc57600080fd5b5035919050565b60008060408385031215610ed657600080fd5b610edf83610e28565b946020939093013593505050565b634e487b7160e01b600052603260045260246000fd5b634e487b7160e01b600052601160045260246000fd5b600060018201610f2b57610f2b610f03565b5060010190565b634e487b7160e01b600052604160045260246000fd5b600060208284031215610f5a57600080fd5b5051919050565b80820281158282048414176106f5576106f5610f03565b600082610f9557634e487b7160e01b600052601260045260246000fd5b500490565b808201808211156106f5576106f5610f03565b818103818111156106f5576106f5610f0356fea2646970667358221220395736d486a2f694515c586a72ca75c06ad80b75098c5633356d60320000dd8564736f6c63430008140033",
  "linkReferences": {},
  "deployedLinkReferences": {}
}