{
  "_format": "hh-sol-artifact-1",
  "contractName": "SimpleJetToken",
  "sourceName": "contracts/SimpleJetToken.sol",
  "abi": [
    {
      "inputs": [],
      "stateMutability": "nonpayable",
      "type": "constructor"
    },
    {
      "inputs": [
        {
          "internalType": "address",
          "name": "spender",
          "type": "address"
        },
        {
          "internalType": "uint256",
          "name": "allowance",
          "type": "uint256"
        },
        {
          "internalType": "uint256",
          "name": "needed",
          "type": "uint256"
        }
      ],
      "name": "ERC20InsufficientAllowance",
      "type": "error"
    },
    {
      "inputs": [
        {
          "internalType": "address",
          "name": "sender",
          "type": "address"
        },
        {
          "internalType": "uint256",
          "name": "balance",
          "type": "uint256"
        },
        {
          "internalType": "uint256",
          "name": "needed",
          "type": "uint256"
        }
      ],
      "name": "ERC20InsufficientBalance",
      "type": "error"
    },
    {
      "inputs": [
        {
          "internalType": "address",
          "name": "approver",
          "type": "address"
        }
      ],
      "name": "ERC20InvalidApprover",
      "type": "error"
    },
    {
      "inputs": [
        {
          "internalType": "address",
          "name": "receiver",
          "type": "address"
        }
      ],
      "name": "ERC20InvalidReceiver",
      "type": "error"
    },
    {
      "inputs": [
        {
          "internalType": "address",
          "name": "sender",
          "type": "address"
        }
      ],
      "name": "ERC20InvalidSender",
      "type": "error"
    },
    {
      "inputs": [
        {
          "internalType": "address",
          "name": "spender",
          "type": "address"
        }
      ],
      "name": "ERC20InvalidSpender",
      "type": "error"
    },
    {
      "inputs": [
        {
          "internalType": "address",
          "name": "owner",
          "type": "address"
        }
      ],
      "name": "OwnableInvalidOwner",
      "type": "error"
    },
    {
      "inputs": [
        {
          "internalType": "address",
          "name": "account",
          "type": "address"
        }
      ],
      "name": "OwnableUnauthorizedAccount",
      "type": "error"
    },
    {
      "anonymous": false,
      "inputs": [
        {
          "indexed": true,
          "internalType": "address",
          "name": "owner",
          "type": "address"
        },
        {
          "indexed": true,
          "internalType": "address",
          "name": "spender",
          "type": "address"
        },
        {
          "indexed": false,
          "internalType": "uint256",
          "name": "value",
          "type": "uint256"
        }
      ],
      "name": "Approval",
      "type": "event"
    },
    {
      "anonymous": false,
      "inputs": [
        {
          "indexed": true,
          "internalType": "address",
          "name": "previousOwner",
          "type": "address"
        },
        {
          "indexed": true,
          "internalType": "address",
          "name": "newOwner",
          "type": "address"
        }
      ],
      "name": "OwnershipTransferred",
      "type": "event"
    },
    {
      "anonymous": false,
      "inputs": [
        {
          "indexed": true,
          "internalType": "address",
          "name": "buyer",
          "type": "address"
        },
        {
          "indexed": false,
          "internalType": "uint256",
          "name": "amount",
          "type": "uint256"
        },
        {
          "indexed": false,
          "internalType": "uint256",
          "name": "ethPaid",
          "type": "uint256"
        }
      ],
      "name": "TokensPurchased",
      "type": "event"
    },
    {
      "anonymous": false,
      "inputs": [
        {
          "indexed": true,
          "internalType": "address",
          "name": "from",
          "type": "address"
        },
        {
          "indexed": true,
          "internalType": "address",
          "name": "to",
          "type": "address"
        },
        {
          "indexed": false,
          "internalType": "uint256",
          "name": "value",
          "type": "uint256"
        }
      ],
      "name": "Transfer",
      "type": "event"
    },
    {
      "inputs": [
        {
          "internalType": "address",
          "name": "owner",
          "type": "address"
        },
        {
          "internalType": "address",
          "name": "spender",
          "type": "address"
        }
      ],
      "name": "allowance",
      "outputs": [
        {
          "internalType": "uint256",
          "name": "",
          "type": "uint256"
        }
      ],
      "stateMutability": "view",
      "type": "function"
    },
    {
      "inputs": [
        {
          "internalType": "address",
          "name": "spender",
          "type": "address"
        },
        {
          "internalType": "uint256",
          "name": "value",
          "type": "uint256"
        }
      ],
      "name": "approve",
      "outputs": [
        {
          "internalType": "bool",
          "name": "",
          "type": "bool"
        }
      ],
      "stateMutability": "nonpayable",
      "type": "function"
    },
    {
      "inputs": [
        {
          "internalType": "address",
          "name": "account",
          "type": "address"
        }
      ],
      "name": "balanceOf",
      "outputs": [
        {
          "internalType": "uint256",
          "name": "",
          "type": "uint256"
        }
      ],
      "stateMutability": "view",
      "type": "function"
    },
    {
      "inputs": [],
      "name": "buyTokens",
      "outputs": [],
      "stateMutability": "payable",
      "type": "function"
    },
    {
      "inputs": [
        {
          "internalType": "uint256",
          "name": "ethAmount",
          "type": "uint256"
        }
      ],
      "name": "calculateTokens",
      "outputs": [
        {
          "internalType": "uint256",
          "name": "",
          "type": "uint256"
        }
      ],
      "stateMutability": "view",
      "type": "function"
    },
    {
      "inputs": [],
      "name": "decimals",
      "outputs": [
        {
          "internalType": "uint8",
          "name": "",
          "type": "uint8"
        }
      ],
      "stateMutability": "view",
      "type": "function"
    },
    {
      "inputs": [],
      "name": "name",
      "outputs": [
        {
          "internalType": "string",
          "name": "",
          "type": "string"
        }
      ],
      "stateMutability": "view",
      "type": "function"
    },
    {
      "inputs": [],
      "name": "owner",
      "outputs": [
        {
          "internalType": "address",
          "name": "",
          "type": "address"
        }
      ],
      "stateMutability": "view",
      "type": "function"
    },
    {
      "inputs": [],
      "name": "renounceOwnership",
      "outputs": [],
      "stateMutability": "nonpayable",
      "type": "function"
    },
    {
      "inputs": [
        {
          "internalType": "uint256",
          "name": "_priceWei",
          "type": "uint256"
        }
      ],
      "name": "setTokenPrice",
      "outputs": [],
      "stateMutability": "nonpayable",
      "type": "function"
    },
    {
      "inputs": [],
      "name": "symbol",
      "outputs": [
        {
          "internalType": "string",
          "name": "",
          "type": "string"
        }
      ],
      "stateMutability": "view",
      "type": "function"
    },
    {
      "inputs": [],
      "name": "tokenPriceWei",
      "outputs": [
        {
          "internalType": "uint256",
          "name": "",
          "type": "uint256"
        }
      ],
      "stateMutability": "view",
      "type": "function"
    },
    {
      "inputs": [],
      "name": "totalSupply",
      "outputs": [
        {
          "internalType": "uint256",
          "name": "",
          "type": "uint256"
        }
      ],
      "stateMutability": "view",
      "type": "function"
    },
    {
      "inputs": [
        {
          "internalType": "address",
          "name": "to",
          "type": "address"
        },
        {
          "internalType": "uint256",
          "name": "value",
          "type": "uint256"
        }
      ],
      "name": "transfer",
      "outputs": [
        {
          "internalType": "bool",
          "name": "",
          "type": "bool"
        }
      ],
      "stateMutability": "nonpayable",
      "type": "function"
    },
    {
      "inputs": [
        {
          "internalType": "address",
          "name": "from",
          "type": "address"
        },
        {
          "internalType": "address",
          "name": "to",
          "type": "address"
        },
        {
          "internalType": "uint256",
          "name": "value",
          "type": "uint256"
        }
      ],
      "name": "transferFrom",
      "outputs": [
        {
          "internalType": "bool",
          "name": "",
          "type": "bool"
        }
      ],
      "stateMutability": "nonpayable",
      "type": "function"
    },
    {
      "inputs": [
        {
          "internalType": "address",
          "name": "newOwner",
          "type": "address"
        }
      ],
      "name": "transferOwnership",
      "outputs": [],
      "stateMutability": "nonpayable",
      "type": "function"
    },
    {
      "inputs": [],
      "name": "withdraw",
      "outputs": [],
      "stateMutability": "nonpayable",
      "type": "function"
    }
  ],
  "bytecode": "0x6080604052662386f26fc100006006553480156200001c57600080fd5b50336040518060400160405280601081526020016f29b4b6b83632902532ba102a37b5b2b760811b8152506040518060400160405280600381526020016212915560ea1b8152508160039081620000749190620001be565b506004620000838282620001be565b5050506001600160a01b038116620000b557604051631e4fbdf760e01b81526000600482015260240160405180910390fd5b620000c081620000c7565b506200028a565b600580546001600160a01b038381166001600160a01b0319831681179093556040519116919082907f8be0079c531659141344cd1fd0a4f28419497f9722a3daafe3b4186f6b6457e090600090a35050565b634e487b7160e01b600052604160045260246000fd5b600181811c908216806200014457607f821691505b6020821081036200016557634e487b7160e01b600052602260045260246000fd5b50919050565b601f821115620001b957600081815260208120601f850160051c81016020861015620001945750805b601f850160051c820191505b81811015620001b557828155600101620001a0565b5050505b505050565b81516001600160401b03811115620001da57620001da62000119565b620001f281620001eb84546200012f565b846200016b565b602080601f8311600181146200022a5760008415620002115750858301515b600019600386901b1c1916600185901b178555620001b5565b600085815260208120601f198616915b828110156200025b578886015182559484019460019091019084016200023a565b50858210156200027a5787850151600019600388901b60f8161c191681555b5050505050600190811b01905550565b610bac806200029a6000396000f3fe6080604052600436106100fe5760003560e01c806370a082311161009557806395d89b411161006457806395d89b4114610299578063a9059cbb146102ae578063d0febe4c146102ce578063dd62ed3e146102d6578063f2fde38b1461031c57600080fd5b806370a0823114610206578063715018a61461023c57806371aa60fd146102515780638da5cb5b1461027157600080fd5b806323b872dd116100d157806323b872dd14610193578063313ce567146101b35780633ccfd60b146101cf5780636a61e5fc146101e657600080fd5b806305d0f15b1461010357806306fdde031461012c578063095ea7b31461014e57806318160ddd1461017e575b600080fd5b34801561010f57600080fd5b5061011960065481565b6040519081526020015b60405180910390f35b34801561013857600080fd5b5061014161033c565b604051610123919061099c565b34801561015a57600080fd5b5061016e610169366004610a06565b6103ce565b6040519015158152602001610123565b34801561018a57600080fd5b50600254610119565b34801561019f57600080fd5b5061016e6101ae366004610a30565b6103e8565b3480156101bf57600080fd5b5060405160128152602001610123565b3480156101db57600080fd5b506101e461040c565b005b3480156101f257600080fd5b506101e4610201366004610a6c565b610450565b34801561021257600080fd5b50610119610221366004610a85565b6001600160a01b031660009081526020819052604090205490565b34801561024857600080fd5b506101e461045d565b34801561025d57600080fd5b5061011961026c366004610a6c565b610471565b34801561027d57600080fd5b506005546040516001600160a01b039091168152602001610123565b3480156102a557600080fd5b50610141610493565b3480156102ba57600080fd5b5061016e6102c9366004610a06565b6104a2565b6101e46104b0565b3480156102e257600080fd5b506101196102f1366004610aa7565b6001600160a01b03918216600090815260016020908152604080832093909416825291909152205490565b34801561032857600080fd5b506101e4610337366004610a85565b6105b9565b60606003805461034b90610ada565b80601f016020809104026020016040519081016040528092919081815260200182805461037790610ada565b80156103c45780601f10610399576101008083540402835291602001916103c4565b820191906000526020600020905b8154815290600101906020018083116103a757829003601f168201915b5050505050905090565b6000336103dc8185856105f4565b60019150505b92915050565b6000336103f6858285610606565b610401858585610685565b506001949350505050565b6104146106e4565b6005546040516001600160a01b03909116904780156108fc02916000818181858888f1935050505015801561044d573d6000803e3d6000fd5b50565b6104586106e4565b600655565b6104656106e4565b61046f6000610711565b565b60065460009061048983670de0b6b3a7640000610b2a565b6103e29190610b41565b60606004805461034b90610ada565b6000336103dc818585610685565b600034116104fe5760405162461bcd60e51b815260206004820152601660248201527553656e642045544820746f2062757920746f6b656e7360501b60448201526064015b60405180910390fd5b60065460009061051634670de0b6b3a7640000610b2a565b6105209190610b41565b9050600081116105725760405162461bcd60e51b815260206004820152601a60248201527f4e6f7420656e6f7567682045544820666f72203120746f6b656e00000000000060448201526064016104f5565b61057c3382610763565b6040805182815234602082015233917f8fafebcaf9d154343dad25669bfa277f4fbacd7ac6b0c4fed522580e040a0f33910160405180910390a250565b6105c16106e4565b6001600160a01b0381166105eb57604051631e4fbdf760e01b8152600060048201526024016104f5565b61044d81610711565b610601838383600161079d565b505050565b6001600160a01b0383811660009081526001602090815260408083209386168352929052205460001981101561067f578181101561067057604051637dc7a0d960e11b81526001600160a01b038416600482015260248101829052604481018390526064016104f5565b61067f8484848403600061079d565b50505050565b6001600160a01b0383166106af57604051634b637e8f60e11b8152600060048201526024016104f5565b6001600160a01b0382166106d95760405163ec442f0560e01b8152600060048201526024016104f5565b610601838383610872565b6005546001600160a01b0316331461046f5760405163118cdaa760e01b81523360048201526024016104f5565b600580546001600160a01b038381166001600160a01b0319831681179093556040519116919082907f8be0079c531659141344cd1fd0a4f28419497f9722a3daafe3b4186f6b6457e090600090a35050565b6001600160a01b03821661078d5760405163ec442f0560e01b8152600060048201526024016104f5565b61079960008383610872565b5050565b6001600160a01b0384166107c75760405163e602df0560e01b8152600060048201526024016104f5565b6001600160a01b0383166107f157604051634a1406b160e11b8152600060048201526024016104f5565b6001600160a01b038085166000908152600160209081526040808320938716835292905220829055801561067f57826001600160a01b0316846001600160a01b03167f8c5be1e5ebec7d5bd14f71427d1e84f3dd0314c0f7b2291e5b200ac8c7c3b9258460405161086491815260200190565b60405180910390a350505050565b6001600160a01b03831661089d5780600260008282546108929190610b63565b9091555061090f9050565b6001600160a01b038316600090815260208190526040902054818110156108f05760405163391434e360e21b81526001600160a01b038516600482015260248101829052604481018390526064016104f5565b6001600160a01b03841660009081526020819052604090209082900390555b6001600160a01b03821661092b5760028054829003905561094a565b6001600160a01b03821660009081526020819052604090208054820190555b816001600160a01b0316836001600160a01b03167fddf252ad1be2c89b69c2b068fc378daa952ba7f163c4a11628f55a4df523b3ef8360405161098f91815260200190565b60405180910390a3505050565b600060208083528351808285015260005b818110156109c9578581018301518582016040015282016109ad565b506000604082860101526040601f19601f8301168501019250505092915050565b80356001600160a01b0381168114610a0157600080fd5b919050565b60008060408385031215610a1957600080fd5b610a22836109ea565b946020939093013593505050565b600080600060608486031215610a4557600080fd5b610a4e846109ea565b9250610a5c602085016109ea565b9150604084013590509250925092565b600060208284031215610a7e57600080fd5b5035919050565b600060208284031215610a9757600080fd5b610aa0826109ea565b9392505050565b60008060408385031215610aba57600080fd5b610ac3836109ea565b9150610ad1602084016109ea565b90509250929050565b600181811c90821680610aee57607f821691505b602082108103610b0e57634e487b7160e01b600052602260045260246000fd5b50919050565b634e487b7160e01b600052601160045260246000fd5b80820281158282048414176103e2576103e2610b14565b600082610b5e57634e487b7160e01b600052601260045260246000fd5b500490565b808201808211156103e2576103e2610b1456fea2646970667358221220a54a6405d2f26f61c01ad00a450f1564ff863634b3ac039d3276d174357292f864736f6c63430008140033",
  "linkReferences": {},
  "deployedLinkReferences": {}
}